{
	"rareskillstest.sol": {
		"ExampleContract": {
			"abi": [
				{
					"inputs": [
						{
							"internalType": "string",
							"name": "user",
							"type": "string"
						}
					],
					"name": "teststrings",
					"outputs": [
						{
							"internalType": "string",
							"name": "",
							"type": "string"
						}
					],
					"stateMutability": "pure",
					"type": "function"
				}
			],
			"devdoc": {
				"kind": "dev",
				"methods": {},
				"version": 1
			},
			"evm": {
				"assembly": "    /* \"rareskillstest.sol\":1071:1242  contract ExampleContract {... */\n  mstore(0x40, 0x80)\n  callvalue\n  dup1\n  iszero\n  tag_1\n  jumpi\n  0x00\n  dup1\n  revert\ntag_1:\n  pop\n  dataSize(sub_0)\n  dup1\n  dataOffset(sub_0)\n  0x00\n  codecopy\n  0x00\n  return\nstop\n\nsub_0: assembly {\n        /* \"rareskillstest.sol\":1071:1242  contract ExampleContract {... */\n      mstore(0x40, 0x80)\n      callvalue\n      dup1\n      iszero\n      tag_1\n      jumpi\n      0x00\n      dup1\n      revert\n    tag_1:\n      pop\n      jumpi(tag_2, lt(calldatasize, 0x04))\n      shr(0xe0, calldataload(0x00))\n      dup1\n      0x898bdc54\n      eq\n      tag_3\n      jumpi\n    tag_2:\n      0x00\n      dup1\n      revert\n        /* \"rareskillstest.sol\":1103:1239  function teststrings (string calldata user) public pure returns (string memory) {... */\n    tag_3:\n      tag_4\n      0x04\n      dup1\n      calldatasize\n      sub\n      dup2\n      add\n      swap1\n      tag_5\n      swap2\n      swap1\n      tag_6\n      jump\t// in\n    tag_5:\n      tag_7\n      jump\t// in\n    tag_4:\n      mload(0x40)\n      tag_8\n      swap2\n      swap1\n      tag_9\n      jump\t// in\n    tag_8:\n      mload(0x40)\n      dup1\n      swap2\n      sub\n      swap1\n      return\n    tag_7:\n        /* \"rareskillstest.sol\":1168:1181  string memory */\n      0x60\n        /* \"rareskillstest.sol\":1226:1230  user */\n      dup3\n      dup3\n        /* \"rareskillstest.sol\":1201:1231  string.concat (\"Hello \", user) */\n      add(0x20, mload(0x40))\n      tag_11\n      swap3\n      swap2\n      swap1\n      tag_12\n      jump\t// in\n    tag_11:\n      mload(0x40)\n      0x20\n      dup2\n      dup4\n      sub\n      sub\n      dup2\n      mstore\n      swap1\n      0x40\n      mstore\n        /* \"rareskillstest.sol\":1194:1231  return string.concat (\"Hello \", user) */\n      swap1\n      pop\n        /* \"rareskillstest.sol\":1103:1239  function teststrings (string calldata user) public pure returns (string memory) {... */\n      swap3\n      swap2\n      pop\n      pop\n      jump\t// out\n        /* \"#utility.yul\":88:205   */\n    tag_14:\n        /* \"#utility.yul\":197:198   */\n      0x00\n        /* \"#utility.yul\":194:195   */\n      dup1\n        /* \"#utility.yul\":187:199   */\n      revert\n        /* \"#utility.yul\":211:328   */\n    tag_15:\n        /* \"#utility.yul\":320:321   */\n      0x00\n        /* \"#utility.yul\":317:318   */\n      dup1\n        /* \"#utility.yul\":310:322   */\n      revert\n        /* \"#utility.yul\":334:451   */\n    tag_16:\n        /* \"#utility.yul\":443:444   */\n      0x00\n        /* \"#utility.yul\":440:441   */\n      dup1\n        /* \"#utility.yul\":433:445   */\n      revert\n        /* \"#utility.yul\":457:574   */\n    tag_17:\n        /* \"#utility.yul\":566:567   */\n      0x00\n        /* \"#utility.yul\":563:564   */\n      dup1\n        /* \"#utility.yul\":556:568   */\n      revert\n        /* \"#utility.yul\":580:697   */\n    tag_18:\n        /* \"#utility.yul\":689:690   */\n      0x00\n        /* \"#utility.yul\":686:687   */\n      dup1\n        /* \"#utility.yul\":679:691   */\n      revert\n        /* \"#utility.yul\":717:1270   */\n    tag_19:\n        /* \"#utility.yul\":775:783   */\n      0x00\n        /* \"#utility.yul\":785:791   */\n      dup1\n        /* \"#utility.yul\":835:838   */\n      dup4\n        /* \"#utility.yul\":828:832   */\n      0x1f\n        /* \"#utility.yul\":820:826   */\n      dup5\n        /* \"#utility.yul\":816:833   */\n      add\n        /* \"#utility.yul\":812:839   */\n      slt\n        /* \"#utility.yul\":802:924   */\n      tag_37\n      jumpi\n        /* \"#utility.yul\":843:922   */\n      tag_38\n      tag_16\n      jump\t// in\n    tag_38:\n        /* \"#utility.yul\":802:924   */\n    tag_37:\n        /* \"#utility.yul\":956:962   */\n      dup3\n        /* \"#utility.yul\":943:963   */\n      calldataload\n        /* \"#utility.yul\":933:963   */\n      swap1\n      pop\n        /* \"#utility.yul\":986:1004   */\n      0xffffffffffffffff\n        /* \"#utility.yul\":978:984   */\n      dup2\n        /* \"#utility.yul\":975:1005   */\n      gt\n        /* \"#utility.yul\":972:1089   */\n      iszero\n      tag_39\n      jumpi\n        /* \"#utility.yul\":1008:1087   */\n      tag_40\n      tag_17\n      jump\t// in\n    tag_40:\n        /* \"#utility.yul\":972:1089   */\n    tag_39:\n        /* \"#utility.yul\":1122:1126   */\n      0x20\n        /* \"#utility.yul\":1114:1120   */\n      dup4\n        /* \"#utility.yul\":1110:1127   */\n      add\n        /* \"#utility.yul\":1098:1127   */\n      swap2\n      pop\n        /* \"#utility.yul\":1176:1179   */\n      dup4\n        /* \"#utility.yul\":1168:1172   */\n      0x01\n        /* \"#utility.yul\":1160:1166   */\n      dup3\n        /* \"#utility.yul\":1156:1173   */\n      mul\n        /* \"#utility.yul\":1146:1154   */\n      dup4\n        /* \"#utility.yul\":1142:1174   */\n      add\n        /* \"#utility.yul\":1139:1180   */\n      gt\n        /* \"#utility.yul\":1136:1264   */\n      iszero\n      tag_41\n      jumpi\n        /* \"#utility.yul\":1183:1262   */\n      tag_42\n      tag_18\n      jump\t// in\n    tag_42:\n        /* \"#utility.yul\":1136:1264   */\n    tag_41:\n        /* \"#utility.yul\":717:1270   */\n      swap3\n      pop\n      swap3\n      swap1\n      pop\n      jump\t// out\n        /* \"#utility.yul\":1276:1805   */\n    tag_6:\n        /* \"#utility.yul\":1347:1353   */\n      0x00\n        /* \"#utility.yul\":1355:1361   */\n      dup1\n        /* \"#utility.yul\":1404:1406   */\n      0x20\n        /* \"#utility.yul\":1392:1401   */\n      dup4\n        /* \"#utility.yul\":1383:1390   */\n      dup6\n        /* \"#utility.yul\":1379:1402   */\n      sub\n        /* \"#utility.yul\":1375:1407   */\n      slt\n        /* \"#utility.yul\":1372:1491   */\n      iszero\n      tag_44\n      jumpi\n        /* \"#utility.yul\":1410:1489   */\n      tag_45\n      tag_14\n      jump\t// in\n    tag_45:\n        /* \"#utility.yul\":1372:1491   */\n    tag_44:\n        /* \"#utility.yul\":1558:1559   */\n      0x00\n        /* \"#utility.yul\":1547:1556   */\n      dup4\n        /* \"#utility.yul\":1543:1560   */\n      add\n        /* \"#utility.yul\":1530:1561   */\n      calldataload\n        /* \"#utility.yul\":1588:1606   */\n      0xffffffffffffffff\n        /* \"#utility.yul\":1580:1586   */\n      dup2\n        /* \"#utility.yul\":1577:1607   */\n      gt\n        /* \"#utility.yul\":1574:1691   */\n      iszero\n      tag_46\n      jumpi\n        /* \"#utility.yul\":1610:1689   */\n      tag_47\n      tag_15\n      jump\t// in\n    tag_47:\n        /* \"#utility.yul\":1574:1691   */\n    tag_46:\n        /* \"#utility.yul\":1723:1788   */\n      tag_48\n        /* \"#utility.yul\":1780:1787   */\n      dup6\n        /* \"#utility.yul\":1771:1777   */\n      dup3\n        /* \"#utility.yul\":1760:1769   */\n      dup7\n        /* \"#utility.yul\":1756:1778   */\n      add\n        /* \"#utility.yul\":1723:1788   */\n      tag_19\n      jump\t// in\n    tag_48:\n        /* \"#utility.yul\":1705:1788   */\n      swap3\n      pop\n      swap3\n      pop\n        /* \"#utility.yul\":1501:1798   */\n      pop\n        /* \"#utility.yul\":1276:1805   */\n      swap3\n      pop\n      swap3\n      swap1\n      pop\n      jump\t// out\n        /* \"#utility.yul\":1811:1910   */\n    tag_20:\n        /* \"#utility.yul\":1863:1869   */\n      0x00\n        /* \"#utility.yul\":1897:1902   */\n      dup2\n        /* \"#utility.yul\":1891:1903   */\n      mload\n        /* \"#utility.yul\":1881:1903   */\n      swap1\n      pop\n        /* \"#utility.yul\":1811:1910   */\n      swap2\n      swap1\n      pop\n      jump\t// out\n        /* \"#utility.yul\":1916:2085   */\n    tag_21:\n        /* \"#utility.yul\":2000:2011   */\n      0x00\n        /* \"#utility.yul\":2034:2040   */\n      dup3\n        /* \"#utility.yul\":2029:2032   */\n      dup3\n        /* \"#utility.yul\":2022:2041   */\n      mstore\n        /* \"#utility.yul\":2074:2078   */\n      0x20\n        /* \"#utility.yul\":2069:2072   */\n      dup3\n        /* \"#utility.yul\":2065:2079   */\n      add\n        /* \"#utility.yul\":2050:2079   */\n      swap1\n      pop\n        /* \"#utility.yul\":1916:2085   */\n      swap3\n      swap2\n      pop\n      pop\n      jump\t// out\n        /* \"#utility.yul\":2091:2230   */\n    tag_22:\n        /* \"#utility.yul\":2180:2186   */\n      dup3\n        /* \"#utility.yul\":2175:2178   */\n      dup2\n        /* \"#utility.yul\":2170:2173   */\n      dup4\n        /* \"#utility.yul\":2164:2187   */\n      mcopy\n        /* \"#utility.yul\":2221:2222   */\n      0x00\n        /* \"#utility.yul\":2212:2218   */\n      dup4\n        /* \"#utility.yul\":2207:2210   */\n      dup4\n        /* \"#utility.yul\":2203:2219   */\n      add\n        /* \"#utility.yul\":2196:2223   */\n      mstore\n        /* \"#utility.yul\":2091:2230   */\n      pop\n      pop\n      pop\n      jump\t// out\n        /* \"#utility.yul\":2236:2338   */\n    tag_23:\n        /* \"#utility.yul\":2277:2283   */\n      0x00\n        /* \"#utility.yul\":2328:2330   */\n      0x1f\n        /* \"#utility.yul\":2324:2331   */\n      not\n        /* \"#utility.yul\":2319:2321   */\n      0x1f\n        /* \"#utility.yul\":2312:2317   */\n      dup4\n        /* \"#utility.yul\":2308:2322   */\n      add\n        /* \"#utility.yul\":2304:2332   */\n      and\n        /* \"#utility.yul\":2294:2332   */\n      swap1\n      pop\n        /* \"#utility.yul\":2236:2338   */\n      swap2\n      swap1\n      pop\n      jump\t// out\n        /* \"#utility.yul\":2344:2721   */\n    tag_24:\n        /* \"#utility.yul\":2432:2435   */\n      0x00\n        /* \"#utility.yul\":2460:2499   */\n      tag_54\n        /* \"#utility.yul\":2493:2498   */\n      dup3\n        /* \"#utility.yul\":2460:2499   */\n      tag_20\n      jump\t// in\n    tag_54:\n        /* \"#utility.yul\":2515:2586   */\n      tag_55\n        /* \"#utility.yul\":2579:2585   */\n      dup2\n        /* \"#utility.yul\":2574:2577   */\n      dup6\n        /* \"#utility.yul\":2515:2586   */\n      tag_21\n      jump\t// in\n    tag_55:\n        /* \"#utility.yul\":2508:2586   */\n      swap4\n      pop\n        /* \"#utility.yul\":2595:2660   */\n      tag_56\n        /* \"#utility.yul\":2653:2659   */\n      dup2\n        /* \"#utility.yul\":2648:2651   */\n      dup6\n        /* \"#utility.yul\":2641:2645   */\n      0x20\n        /* \"#utility.yul\":2634:2639   */\n      dup7\n        /* \"#utility.yul\":2630:2646   */\n      add\n        /* \"#utility.yul\":2595:2660   */\n      tag_22\n      jump\t// in\n    tag_56:\n        /* \"#utility.yul\":2685:2714   */\n      tag_57\n        /* \"#utility.yul\":2707:2713   */\n      dup2\n        /* \"#utility.yul\":2685:2714   */\n      tag_23\n      jump\t// in\n    tag_57:\n        /* \"#utility.yul\":2680:2683   */\n      dup5\n        /* \"#utility.yul\":2676:2715   */\n      add\n        /* \"#utility.yul\":2669:2715   */\n      swap2\n      pop\n        /* \"#utility.yul\":2436:2721   */\n      pop\n        /* \"#utility.yul\":2344:2721   */\n      swap3\n      swap2\n      pop\n      pop\n      jump\t// out\n        /* \"#utility.yul\":2727:3040   */\n    tag_9:\n        /* \"#utility.yul\":2840:2844   */\n      0x00\n        /* \"#utility.yul\":2878:2880   */\n      0x20\n        /* \"#utility.yul\":2867:2876   */\n      dup3\n        /* \"#utility.yul\":2863:2881   */\n      add\n        /* \"#utility.yul\":2855:2881   */\n      swap1\n      pop\n        /* \"#utility.yul\":2927:2936   */\n      dup2\n        /* \"#utility.yul\":2921:2925   */\n      dup2\n        /* \"#utility.yul\":2917:2937   */\n      sub\n        /* \"#utility.yul\":2913:2914   */\n      0x00\n        /* \"#utility.yul\":2902:2911   */\n      dup4\n        /* \"#utility.yul\":2898:2915   */\n      add\n        /* \"#utility.yul\":2891:2938   */\n      mstore\n        /* \"#utility.yul\":2955:3033   */\n      tag_59\n        /* \"#utility.yul\":3028:3032   */\n      dup2\n        /* \"#utility.yul\":3019:3025   */\n      dup5\n        /* \"#utility.yul\":2955:3033   */\n      tag_24\n      jump\t// in\n    tag_59:\n        /* \"#utility.yul\":2947:3033   */\n      swap1\n      pop\n        /* \"#utility.yul\":2727:3040   */\n      swap3\n      swap2\n      pop\n      pop\n      jump\t// out\n        /* \"#utility.yul\":3046:3229   */\n    tag_25:\n        /* \"#utility.yul\":3214:3222   */\n      0x48656c6c6f200000000000000000000000000000000000000000000000000000\n        /* \"#utility.yul\":3209:3212   */\n      dup2\n        /* \"#utility.yul\":3202:3223   */\n      mstore\n        /* \"#utility.yul\":3046:3229   */\n      pop\n      jump\t// out\n        /* \"#utility.yul\":3235:3383   */\n    tag_26:\n        /* \"#utility.yul\":3337:3348   */\n      0x00\n        /* \"#utility.yul\":3374:3377   */\n      dup2\n        /* \"#utility.yul\":3359:3377   */\n      swap1\n      pop\n        /* \"#utility.yul\":3235:3383   */\n      swap3\n      swap2\n      pop\n      pop\n      jump\t// out\n        /* \"#utility.yul\":3389:3537   */\n    tag_27:\n        /* \"#utility.yul\":3487:3493   */\n      dup3\n        /* \"#utility.yul\":3482:3485   */\n      dup2\n        /* \"#utility.yul\":3477:3480   */\n      dup4\n        /* \"#utility.yul\":3464:3494   */\n      calldatacopy\n        /* \"#utility.yul\":3528:3529   */\n      0x00\n        /* \"#utility.yul\":3519:3525   */\n      dup4\n        /* \"#utility.yul\":3514:3517   */\n      dup4\n        /* \"#utility.yul\":3510:3526   */\n      add\n        /* \"#utility.yul\":3503:3530   */\n      mstore\n        /* \"#utility.yul\":3389:3537   */\n      pop\n      pop\n      pop\n      jump\t// out\n        /* \"#utility.yul\":3567:3897   */\n    tag_28:\n        /* \"#utility.yul\":3683:3686   */\n      0x00\n        /* \"#utility.yul\":3704:3793   */\n      tag_64\n        /* \"#utility.yul\":3786:3792   */\n      dup4\n        /* \"#utility.yul\":3781:3784   */\n      dup6\n        /* \"#utility.yul\":3704:3793   */\n      tag_26\n      jump\t// in\n    tag_64:\n        /* \"#utility.yul\":3697:3793   */\n      swap4\n      pop\n        /* \"#utility.yul\":3803:3859   */\n      tag_65\n        /* \"#utility.yul\":3852:3858   */\n      dup4\n        /* \"#utility.yul\":3847:3850   */\n      dup6\n        /* \"#utility.yul\":3840:3845   */\n      dup5\n        /* \"#utility.yul\":3803:3859   */\n      tag_27\n      jump\t// in\n    tag_65:\n        /* \"#utility.yul\":3884:3890   */\n      dup3\n        /* \"#utility.yul\":3879:3882   */\n      dup5\n        /* \"#utility.yul\":3875:3891   */\n      add\n        /* \"#utility.yul\":3868:3891   */\n      swap1\n      pop\n        /* \"#utility.yul\":3567:3897   */\n      swap4\n      swap3\n      pop\n      pop\n      pop\n      jump\t// out\n        /* \"#utility.yul\":3903:4462   */\n    tag_12:\n        /* \"#utility.yul\":4135:4138   */\n      0x00\n        /* \"#utility.yul\":4150:4287   */\n      tag_67\n        /* \"#utility.yul\":4283:4286   */\n      dup3\n        /* \"#utility.yul\":4150:4287   */\n      tag_25\n      jump\t// in\n    tag_67:\n        /* \"#utility.yul\":4312:4313   */\n      0x06\n        /* \"#utility.yul\":4307:4310   */\n      dup3\n        /* \"#utility.yul\":4303:4314   */\n      add\n        /* \"#utility.yul\":4296:4314   */\n      swap2\n      pop\n        /* \"#utility.yul\":4331:4436   */\n      tag_68\n        /* \"#utility.yul\":4432:4435   */\n      dup3\n        /* \"#utility.yul\":4423:4429   */\n      dup5\n        /* \"#utility.yul\":4415:4421   */\n      dup7\n        /* \"#utility.yul\":4331:4436   */\n      tag_28\n      jump\t// in\n    tag_68:\n        /* \"#utility.yul\":4324:4436   */\n      swap2\n      pop\n        /* \"#utility.yul\":4453:4456   */\n      dup2\n        /* \"#utility.yul\":4446:4456   */\n      swap1\n      pop\n        /* \"#utility.yul\":3903:4462   */\n      swap4\n      swap3\n      pop\n      pop\n      pop\n      jump\t// out\n\n    auxdata: 0xa2646970667358221220822dc4756264ba3e1dd8b030cdcb2fff24dc56182c6eeaa97cb6b44cb67f12dc64736f6c634300081a0033\n}\n",
				"bytecode": {
					"linkReferences": {},
					"object": "6080604052348015600e575f80fd5b5061028c8061001c5f395ff3fe608060405234801561000f575f80fd5b5060043610610029575f3560e01c8063898bdc541461002d575b5f80fd5b610047600480360381019061004291906100f2565b61005d565b60405161005491906101ad565b60405180910390f35b6060828260405160200161007292919061022f565b604051602081830303815290604052905092915050565b5f80fd5b5f80fd5b5f80fd5b5f80fd5b5f80fd5b5f8083601f8401126100b2576100b1610091565b5b8235905067ffffffffffffffff8111156100cf576100ce610095565b5b6020830191508360018202830111156100eb576100ea610099565b5b9250929050565b5f806020838503121561010857610107610089565b5b5f83013567ffffffffffffffff8111156101255761012461008d565b5b6101318582860161009d565b92509250509250929050565b5f81519050919050565b5f82825260208201905092915050565b8281835e5f83830152505050565b5f601f19601f8301169050919050565b5f61017f8261013d565b6101898185610147565b9350610199818560208601610157565b6101a281610165565b840191505092915050565b5f6020820190508181035f8301526101c58184610175565b905092915050565b7f48656c6c6f200000000000000000000000000000000000000000000000000000815250565b5f81905092915050565b828183375f83830152505050565b5f61021683856101f3565b93506102238385846101fd565b82840190509392505050565b5f610239826101cd565b60068201915061024a82848661020b565b9150819050939250505056fea2646970667358221220822dc4756264ba3e1dd8b030cdcb2fff24dc56182c6eeaa97cb6b44cb67f12dc64736f6c634300081a0033",
					"opcodes": "PUSH1 0x80 PUSH1 0x40 MSTORE CALLVALUE DUP1 ISZERO PUSH1 0xE JUMPI PUSH0 DUP1 REVERT JUMPDEST POP PUSH2 0x28C DUP1 PUSH2 0x1C PUSH0 CODECOPY PUSH0 RETURN INVALID PUSH1 0x80 PUSH1 0x40 MSTORE CALLVALUE DUP1 ISZERO PUSH2 0xF JUMPI PUSH0 DUP1 REVERT JUMPDEST POP PUSH1 0x4 CALLDATASIZE LT PUSH2 0x29 JUMPI PUSH0 CALLDATALOAD PUSH1 0xE0 SHR DUP1 PUSH4 0x898BDC54 EQ PUSH2 0x2D JUMPI JUMPDEST PUSH0 DUP1 REVERT JUMPDEST PUSH2 0x47 PUSH1 0x4 DUP1 CALLDATASIZE SUB DUP2 ADD SWAP1 PUSH2 0x42 SWAP2 SWAP1 PUSH2 0xF2 JUMP JUMPDEST PUSH2 0x5D JUMP JUMPDEST PUSH1 0x40 MLOAD PUSH2 0x54 SWAP2 SWAP1 PUSH2 0x1AD JUMP JUMPDEST PUSH1 0x40 MLOAD DUP1 SWAP2 SUB SWAP1 RETURN JUMPDEST PUSH1 0x60 DUP3 DUP3 PUSH1 0x40 MLOAD PUSH1 0x20 ADD PUSH2 0x72 SWAP3 SWAP2 SWAP1 PUSH2 0x22F JUMP JUMPDEST PUSH1 0x40 MLOAD PUSH1 0x20 DUP2 DUP4 SUB SUB DUP2 MSTORE SWAP1 PUSH1 0x40 MSTORE SWAP1 POP SWAP3 SWAP2 POP POP JUMP JUMPDEST PUSH0 DUP1 REVERT JUMPDEST PUSH0 DUP1 REVERT JUMPDEST PUSH0 DUP1 REVERT JUMPDEST PUSH0 DUP1 REVERT JUMPDEST PUSH0 DUP1 REVERT JUMPDEST PUSH0 DUP1 DUP4 PUSH1 0x1F DUP5 ADD SLT PUSH2 0xB2 JUMPI PUSH2 0xB1 PUSH2 0x91 JUMP JUMPDEST JUMPDEST DUP3 CALLDATALOAD SWAP1 POP PUSH8 0xFFFFFFFFFFFFFFFF DUP2 GT ISZERO PUSH2 0xCF JUMPI PUSH2 0xCE PUSH2 0x95 JUMP JUMPDEST JUMPDEST PUSH1 0x20 DUP4 ADD SWAP2 POP DUP4 PUSH1 0x1 DUP3 MUL DUP4 ADD GT ISZERO PUSH2 0xEB JUMPI PUSH2 0xEA PUSH2 0x99 JUMP JUMPDEST JUMPDEST SWAP3 POP SWAP3 SWAP1 POP JUMP JUMPDEST PUSH0 DUP1 PUSH1 0x20 DUP4 DUP6 SUB SLT ISZERO PUSH2 0x108 JUMPI PUSH2 0x107 PUSH2 0x89 JUMP JUMPDEST JUMPDEST PUSH0 DUP4 ADD CALLDATALOAD PUSH8 0xFFFFFFFFFFFFFFFF DUP2 GT ISZERO PUSH2 0x125 JUMPI PUSH2 0x124 PUSH2 0x8D JUMP JUMPDEST JUMPDEST PUSH2 0x131 DUP6 DUP3 DUP7 ADD PUSH2 0x9D JUMP JUMPDEST SWAP3 POP SWAP3 POP POP SWAP3 POP SWAP3 SWAP1 POP JUMP JUMPDEST PUSH0 DUP2 MLOAD SWAP1 POP SWAP2 SWAP1 POP JUMP JUMPDEST PUSH0 DUP3 DUP3 MSTORE PUSH1 0x20 DUP3 ADD SWAP1 POP SWAP3 SWAP2 POP POP JUMP JUMPDEST DUP3 DUP2 DUP4 MCOPY PUSH0 DUP4 DUP4 ADD MSTORE POP POP POP JUMP JUMPDEST PUSH0 PUSH1 0x1F NOT PUSH1 0x1F DUP4 ADD AND SWAP1 POP SWAP2 SWAP1 POP JUMP JUMPDEST PUSH0 PUSH2 0x17F DUP3 PUSH2 0x13D JUMP JUMPDEST PUSH2 0x189 DUP2 DUP6 PUSH2 0x147 JUMP JUMPDEST SWAP4 POP PUSH2 0x199 DUP2 DUP6 PUSH1 0x20 DUP7 ADD PUSH2 0x157 JUMP JUMPDEST PUSH2 0x1A2 DUP2 PUSH2 0x165 JUMP JUMPDEST DUP5 ADD SWAP2 POP POP SWAP3 SWAP2 POP POP JUMP JUMPDEST PUSH0 PUSH1 0x20 DUP3 ADD SWAP1 POP DUP2 DUP2 SUB PUSH0 DUP4 ADD MSTORE PUSH2 0x1C5 DUP2 DUP5 PUSH2 0x175 JUMP JUMPDEST SWAP1 POP SWAP3 SWAP2 POP POP JUMP JUMPDEST PUSH32 0x48656C6C6F200000000000000000000000000000000000000000000000000000 DUP2 MSTORE POP JUMP JUMPDEST PUSH0 DUP2 SWAP1 POP SWAP3 SWAP2 POP POP JUMP JUMPDEST DUP3 DUP2 DUP4 CALLDATACOPY PUSH0 DUP4 DUP4 ADD MSTORE POP POP POP JUMP JUMPDEST PUSH0 PUSH2 0x216 DUP4 DUP6 PUSH2 0x1F3 JUMP JUMPDEST SWAP4 POP PUSH2 0x223 DUP4 DUP6 DUP5 PUSH2 0x1FD JUMP JUMPDEST DUP3 DUP5 ADD SWAP1 POP SWAP4 SWAP3 POP POP POP JUMP JUMPDEST PUSH0 PUSH2 0x239 DUP3 PUSH2 0x1CD JUMP JUMPDEST PUSH1 0x6 DUP3 ADD SWAP2 POP PUSH2 0x24A DUP3 DUP5 DUP7 PUSH2 0x20B JUMP JUMPDEST SWAP2 POP DUP2 SWAP1 POP SWAP4 SWAP3 POP POP POP JUMP INVALID LOG2 PUSH5 0x6970667358 0x22 SLT KECCAK256 DUP3 0x2D 0xC4 PUSH22 0x6264BA3E1DD8B030CDCB2FFF24DC56182C6EEAA97CB6 0xB4 0x4C 0xB6 PUSH32 0x12DC64736F6C634300081A003300000000000000000000000000000000000000 "
				},
				"gasEstimates": {
					"creation": {
						"codeDepositCost": "130400",
						"executionCost": "175",
						"totalCost": "130575"
					},
					"external": {
						"teststrings(string)": "infinite"
					}
				},
				"methodIdentifiers": {
					"teststrings(string)": "898bdc54"
				}
			},
			"storageLayout": {
				"storage": [],
				"types": null
			},
			"userdoc": {
				"kind": "user",
				"methods": {},
				"version": 1
			}
		}
	}
}